{
  "_format": "hh-sol-artifact-1",
  "contractName": "GLLOC",
  "sourceName": "contracts/GLLOC.sol",
  "abi": [
    {
      "inputs": [],
      "stateMutability": "nonpayable",
      "type": "constructor"
    },
    {
      "anonymous": false,
      "inputs": [
        {
          "indexed": false,
          "internalType": "address",
          "name": "orgId",
          "type": "address"
        }
      ],
      "name": "LogOrgCreated",
      "type": "event"
    },
    {
      "inputs": [
        {
          "internalType": "string",
          "name": "_department",
          "type": "string"
        }
      ],
      "name": "addDepartment",
      "outputs": [],
      "stateMutability": "nonpayable",
      "type": "function"
    },
    {
      "inputs": [
        {
          "internalType": "string",
          "name": "_orgOwnerName",
          "type": "string"
        },
        {
          "internalType": "string",
          "name": "_orgOwnerEmail",
          "type": "string"
        },
        {
          "internalType": "string",
          "name": "_orgOwnerAvatar",
          "type": "string"
        },
        {
          "internalType": "string",
          "name": "_orgOwnerMobile",
          "type": "string"
        },
        {
          "internalType": "string",
          "name": "_orgOwnerRole",
          "type": "string"
        },
        {
          "internalType": "string",
          "name": "_orgOwnerTeam",
          "type": "string"
        },
        {
          "internalType": "string",
          "name": "_orgOwnerSkills",
          "type": "string"
        }
      ],
      "name": "addOrgOwner",
      "outputs": [],
      "stateMutability": "nonpayable",
      "type": "function"
    },
    {
      "inputs": [
        {
          "internalType": "string",
          "name": "_name",
          "type": "string"
        },
        {
          "internalType": "string",
          "name": "_website",
          "type": "string"
        },
        {
          "internalType": "string",
          "name": "_description",
          "type": "string"
        },
        {
          "internalType": "string",
          "name": "_logo",
          "type": "string"
        }
      ],
      "name": "addOrganisation",
      "outputs": [],
      "stateMutability": "nonpayable",
      "type": "function"
    },
    {
      "inputs": [
        {
          "internalType": "address",
          "name": "_userAddress",
          "type": "address"
        },
        {
          "internalType": "string",
          "name": "_name",
          "type": "string"
        },
        {
          "internalType": "string",
          "name": "_email",
          "type": "string"
        },
        {
          "internalType": "string",
          "name": "_avatar",
          "type": "string"
        },
        {
          "internalType": "string",
          "name": "_role",
          "type": "string"
        },
        {
          "internalType": "string",
          "name": "_team",
          "type": "string"
        }
      ],
      "name": "addUser",
      "outputs": [],
      "stateMutability": "nonpayable",
      "type": "function"
    },
    {
      "inputs": [
        {
          "internalType": "address",
          "name": "_userAddress",
          "type": "address"
        },
        {
          "internalType": "string",
          "name": "_taskName",
          "type": "string"
        },
        {
          "internalType": "string",
          "name": "_taskDescription",
          "type": "string"
        }
      ],
      "name": "assignTask",
      "outputs": [],
      "stateMutability": "nonpayable",
      "type": "function"
    },
    {
      "inputs": [
        {
          "internalType": "address",
          "name": "_orgId",
          "type": "address"
        },
        {
          "internalType": "address",
          "name": "_orgOwner",
          "type": "address"
        }
      ],
      "name": "changeOrgOwner",
      "outputs": [],
      "stateMutability": "nonpayable",
      "type": "function"
    },
    {
      "inputs": [
        {
          "internalType": "address",
          "name": "_userAddress",
          "type": "address"
        },
        {
          "internalType": "string",
          "name": "_role",
          "type": "string"
        }
      ],
      "name": "changeUserrole",
      "outputs": [],
      "stateMutability": "nonpayable",
      "type": "function"
    },
    {
      "inputs": [
        {
          "internalType": "address",
          "name": "_userAddress",
          "type": "address"
        },
        {
          "internalType": "string",
          "name": "_team",
          "type": "string"
        }
      ],
      "name": "changeUserteam",
      "outputs": [],
      "stateMutability": "nonpayable",
      "type": "function"
    },
    {
      "inputs": [],
      "name": "checkIn",
      "outputs": [],
      "stateMutability": "nonpayable",
      "type": "function"
    },
    {
      "inputs": [],
      "name": "checkOut",
      "outputs": [],
      "stateMutability": "nonpayable",
      "type": "function"
    },
    {
      "inputs": [
        {
          "internalType": "uint256",
          "name": "_taskId",
          "type": "uint256"
        }
      ],
      "name": "comleteTask",
      "outputs": [],
      "stateMutability": "nonpayable",
      "type": "function"
    },
    {
      "inputs": [
        {
          "internalType": "address",
          "name": "_orgId",
          "type": "address"
        }
      ],
      "name": "fetchOrganization",
      "outputs": [
        {
          "components": [
            {
              "internalType": "address",
              "name": "orgId",
              "type": "address"
            },
            {
              "internalType": "address",
              "name": "orgOwner",
              "type": "address"
            },
            {
              "internalType": "string",
              "name": "name",
              "type": "string"
            },
            {
              "internalType": "string",
              "name": "website",
              "type": "string"
            },
            {
              "internalType": "string",
              "name": "description",
              "type": "string"
            },
            {
              "internalType": "string",
              "name": "logo",
              "type": "string"
            },
            {
              "internalType": "string[]",
              "name": "departments",
              "type": "string[]"
            },
            {
              "internalType": "address[]",
              "name": "users",
              "type": "address[]"
            }
          ],
          "internalType": "struct GLLOC.Oraganisation",
          "name": "",
          "type": "tuple"
        }
      ],
      "stateMutability": "view",
      "type": "function"
    },
    {
      "inputs": [],
      "name": "loginUser",
      "outputs": [
        {
          "components": [
            {
              "internalType": "uint256",
              "name": "userId",
              "type": "uint256"
            },
            {
              "internalType": "address",
              "name": "orgId",
              "type": "address"
            },
            {
              "internalType": "address",
              "name": "userAddress",
              "type": "address"
            },
            {
              "internalType": "string",
              "name": "name",
              "type": "string"
            },
            {
              "internalType": "string",
              "name": "email",
              "type": "string"
            },
            {
              "internalType": "string",
              "name": "avatar",
              "type": "string"
            },
            {
              "internalType": "string",
              "name": "mobile",
              "type": "string"
            },
            {
              "internalType": "uint256",
              "name": "dob",
              "type": "uint256"
            },
            {
              "internalType": "string",
              "name": "maritalStatus",
              "type": "string"
            },
            {
              "internalType": "string",
              "name": "role",
              "type": "string"
            },
            {
              "internalType": "string",
              "name": "team",
              "type": "string"
            },
            {
              "internalType": "string",
              "name": "skills",
              "type": "string"
            },
            {
              "internalType": "uint256[]",
              "name": "checkIn",
              "type": "uint256[]"
            },
            {
              "internalType": "uint256[]",
              "name": "checkOut",
              "type": "uint256[]"
            },
            {
              "internalType": "uint256[]",
              "name": "tasks",
              "type": "uint256[]"
            }
          ],
          "internalType": "struct GLLOC.User",
          "name": "",
          "type": "tuple"
        }
      ],
      "stateMutability": "view",
      "type": "function"
    },
    {
      "inputs": [
        {
          "internalType": "address",
          "name": "_orgId",
          "type": "address"
        },
        {
          "internalType": "address",
          "name": "_userAddress",
          "type": "address"
        }
      ],
      "name": "removeUser",
      "outputs": [],
      "stateMutability": "nonpayable",
      "type": "function"
    },
    {
      "inputs": [
        {
          "internalType": "uint256",
          "name": "_taskId",
          "type": "uint256"
        }
      ],
      "name": "searchTask",
      "outputs": [
        {
          "components": [
            {
              "internalType": "uint256",
              "name": "taskId",
              "type": "uint256"
            },
            {
              "internalType": "string",
              "name": "taskName",
              "type": "string"
            },
            {
              "internalType": "string",
              "name": "taskDescription",
              "type": "string"
            },
            {
              "internalType": "string",
              "name": "taskStatus",
              "type": "string"
            },
            {
              "internalType": "uint256",
              "name": "taskCreatedDate",
              "type": "uint256"
            }
          ],
          "internalType": "struct GLLOC.Task",
          "name": "",
          "type": "tuple"
        }
      ],
      "stateMutability": "view",
      "type": "function"
    },
    {
      "inputs": [
        {
          "internalType": "address",
          "name": "_userAddress",
          "type": "address"
        }
      ],
      "name": "searchUser",
      "outputs": [
        {
          "components": [
            {
              "internalType": "uint256",
              "name": "userId",
              "type": "uint256"
            },
            {
              "internalType": "address",
              "name": "orgId",
              "type": "address"
            },
            {
              "internalType": "address",
              "name": "userAddress",
              "type": "address"
            },
            {
              "internalType": "string",
              "name": "name",
              "type": "string"
            },
            {
              "internalType": "string",
              "name": "email",
              "type": "string"
            },
            {
              "internalType": "string",
              "name": "avatar",
              "type": "string"
            },
            {
              "internalType": "string",
              "name": "mobile",
              "type": "string"
            },
            {
              "internalType": "uint256",
              "name": "dob",
              "type": "uint256"
            },
            {
              "internalType": "string",
              "name": "maritalStatus",
              "type": "string"
            },
            {
              "internalType": "string",
              "name": "role",
              "type": "string"
            },
            {
              "internalType": "string",
              "name": "team",
              "type": "string"
            },
            {
              "internalType": "string",
              "name": "skills",
              "type": "string"
            },
            {
              "internalType": "uint256[]",
              "name": "checkIn",
              "type": "uint256[]"
            },
            {
              "internalType": "uint256[]",
              "name": "checkOut",
              "type": "uint256[]"
            },
            {
              "internalType": "uint256[]",
              "name": "tasks",
              "type": "uint256[]"
            }
          ],
          "internalType": "struct GLLOC.User",
          "name": "",
          "type": "tuple"
        }
      ],
      "stateMutability": "view",
      "type": "function"
    },
    {
      "inputs": [
        {
          "internalType": "string",
          "name": "_name",
          "type": "string"
        },
        {
          "internalType": "string",
          "name": "_email",
          "type": "string"
        },
        {
          "internalType": "string",
          "name": "_mobile",
          "type": "string"
        },
        {
          "internalType": "string",
          "name": "_avatar",
          "type": "string"
        },
        {
          "internalType": "string",
          "name": "_userSkills",
          "type": "string"
        },
        {
          "internalType": "string",
          "name": "_maritalStatus",
          "type": "string"
        },
        {
          "internalType": "uint256",
          "name": "_dob",
          "type": "uint256"
        }
      ],
      "name": "updateUser",
      "outputs": [],
      "stateMutability": "nonpayable",
      "type": "function"
    }
  ],
  "bytecode": "0x608060405234801561001057600080fd5b5033600260006101000a81548173ffffffffffffffffffffffffffffffffffffffff021916908373ffffffffffffffffffffffffffffffffffffffff160217905550614800806100616000396000f3fe608060405234801561001057600080fd5b506004361061010b5760003560e01c80639c8f9ace116100a2578063b8b3041111610071578063b8b304111461028c578063c2911645146102a8578063cba5751c146102c4578063f9e41d56146102ce578063fc73276c146102ea5761010b565b80639c8f9ace1461021a578063a19ed68614610236578063a731b21f14610254578063b2fc015f146102705761010b565b806322928d6b116100de57806322928d6b146101825780633217d2471461019e5780636c5bb485146101ce5780639bd7417f146101ea5761010b565b8063075e52a9146101105780630cf8f99414610140578063183ff0851461015c5780631a702aa014610166575b600080fd5b61012a60048036038101906101259190613643565b610306565b604051610137919061395c565b60405180910390f35b61015a600480360381019061015591906139b4565b6107bb565b005b610164610d41565b005b610180600480360381019061017b9190613b16565b610db2565b005b61019c60048036038101906101979190613c2f565b6110a8565b005b6101b860048036038101906101b391906139b4565b6112d2565b6040516101c59190613d02565b60405180910390f35b6101e860048036038101906101e39190613d24565b6114cf565b005b61020460048036038101906101ff9190613643565b61162a565b6040516102119190613fb8565b60405180910390f35b610234600480360381019061022f9190613fda565b611ce2565b005b61023e611e1a565b60405161024b9190613fb8565b60405180910390f35b61026e60048036038101906102699190614124565b6124d0565b005b61028a600480360381019061028591906141fb565b612604565b005b6102a660048036038101906102a19190614244565b61271b565b005b6102c260048036038101906102bd91906143aa565b612a23565b005b6102cc61307e565b005b6102e860048036038101906102e39190613c2f565b6130ef565b005b61030460048036038101906102ff9190613d24565b61320c565b005b61030e61338b565b600360008373ffffffffffffffffffffffffffffffffffffffff1673ffffffffffffffffffffffffffffffffffffffff168152602001908152602001600020604051806101000160405290816000820160009054906101000a900473ffffffffffffffffffffffffffffffffffffffff1673ffffffffffffffffffffffffffffffffffffffff1673ffffffffffffffffffffffffffffffffffffffff1681526020016001820160009054906101000a900473ffffffffffffffffffffffffffffffffffffffff1673ffffffffffffffffffffffffffffffffffffffff1673ffffffffffffffffffffffffffffffffffffffff16815260200160028201805461041590614464565b80601f016020809104026020016040519081016040528092919081815260200182805461044190614464565b801561048e5780601f106104635761010080835404028352916020019161048e565b820191906000526020600020905b81548152906001019060200180831161047157829003601f168201915b505050505081526020016003820180546104a790614464565b80601f01602080910402602001604051908101604052809291908181526020018280546104d390614464565b80156105205780601f106104f557610100808354040283529160200191610520565b820191906000526020600020905b81548152906001019060200180831161050357829003601f168201915b5050505050815260200160048201805461053990614464565b80601f016020809104026020016040519081016040528092919081815260200182805461056590614464565b80156105b25780601f10610587576101008083540402835291602001916105b2565b820191906000526020600020905b81548152906001019060200180831161059557829003601f168201915b505050505081526020016005820180546105cb90614464565b80601f01602080910402602001604051908101604052809291908181526020018280546105f790614464565b80156106445780601f1061061957610100808354040283529160200191610644565b820191906000526020600020905b81548152906001019060200180831161062757829003601f168201915b5050505050815260200160068201805480602002602001604051908101604052809291908181526020016000905b8282101561071e57838290600052602060002001805461069190614464565b80601f01602080910402602001604051908101604052809291908181526020018280546106bd90614464565b801561070a5780601f106106df5761010080835404028352916020019161070a565b820191906000526020600020905b8154815290600101906020018083116106ed57829003601f168201915b505050505081526020019060010190610672565b505050508152602001600782018054806020026020016040519081016040528092919081815260200182805480156107ab57602002820191906000526020600020905b8160009054906101000a900473ffffffffffffffffffffffffffffffffffffffff1673ffffffffffffffffffffffffffffffffffffffff1681526020019060010190808311610761575b5050505050815250509050919050565b6000600360003373ffffffffffffffffffffffffffffffffffffffff1673ffffffffffffffffffffffffffffffffffffffff168152602001908152602001600020604051806101000160405290816000820160009054906101000a900473ffffffffffffffffffffffffffffffffffffffff1673ffffffffffffffffffffffffffffffffffffffff1673ffffffffffffffffffffffffffffffffffffffff1681526020016001820160009054906101000a900473ffffffffffffffffffffffffffffffffffffffff1673ffffffffffffffffffffffffffffffffffffffff1673ffffffffffffffffffffffffffffffffffffffff1681526020016002820180546108c490614464565b80601f01602080910402602001604051908101604052809291908181526020018280546108f090614464565b801561093d5780601f106109125761010080835404028352916020019161093d565b820191906000526020600020905b81548152906001019060200180831161092057829003601f168201915b5050505050815260200160038201805461095690614464565b80601f016020809104026020016040519081016040528092919081815260200182805461098290614464565b80156109cf5780601f106109a4576101008083540402835291602001916109cf565b820191906000526020600020905b8154815290600101906020018083116109b257829003601f168201915b505050505081526020016004820180546109e890614464565b80601f0160208091040260200160405190810160405280929190818152602001828054610a1490614464565b8015610a615780601f10610a3657610100808354040283529160200191610a61565b820191906000526020600020905b815481529060010190602001808311610a4457829003601f168201915b50505050508152602001600582018054610a7a90614464565b80601f0160208091040260200160405190810160405280929190818152602001828054610aa690614464565b8015610af35780601f10610ac857610100808354040283529160200191610af3565b820191906000526020600020905b815481529060010190602001808311610ad657829003601f168201915b5050505050815260200160068201805480602002602001604051908101604052809291908181526020016000905b82821015610bcd578382906000526020600020018054610b4090614464565b80601f0160208091040260200160405190810160405280929190818152602001828054610b6c90614464565b8015610bb95780601f10610b8e57610100808354040283529160200191610bb9565b820191906000526020600020905b815481529060010190602001808311610b9c57829003601f168201915b505050505081526020019060010190610b21565b50505050815260200160078201805480602002602001604051908101604052809291908181526020018280548015610c5a57602002820191906000526020600020905b8160009054906101000a900473ffffffffffffffffffffffffffffffffffffffff1673ffffffffffffffffffffffffffffffffffffffff1681526020019060010190808311610c10575b5050505050815250509050806020015173ffffffffffffffffffffffffffffffffffffffff163373ffffffffffffffffffffffffffffffffffffffff1614610cd7576040517f08c379a0000000000000000000000000000000000000000000000000000000008152600401610cce906144f2565b60405180910390fd5b60006005600084815260200190815260200160002090506040518060400160405280600981526020017f636f6d706c657465640000000000000000000000000000000000000000000000815250816003019080519060200190610d3b9291906133fc565b50505050565b6000600460003373ffffffffffffffffffffffffffffffffffffffff1673ffffffffffffffffffffffffffffffffffffffff168152602001908152602001600020905080600c0142908060018154018082558091505060019003906000526020600020016000909190919091505550565b6000600360003373ffffffffffffffffffffffffffffffffffffffff1673ffffffffffffffffffffffffffffffffffffffff16815260200190815260200160002090508060010160009054906101000a900473ffffffffffffffffffffffffffffffffffffffff1673ffffffffffffffffffffffffffffffffffffffff163373ffffffffffffffffffffffffffffffffffffffff1614610e87576040517f08c379a0000000000000000000000000000000000000000000000000000000008152600401610e7e90614584565b60405180910390fd5b6000600460008973ffffffffffffffffffffffffffffffffffffffff1673ffffffffffffffffffffffffffffffffffffffff1681526020019081526020016000209050428160000181905550878160020160006101000a81548173ffffffffffffffffffffffffffffffffffffffff021916908373ffffffffffffffffffffffffffffffffffffffff160217905550338160010160006101000a81548173ffffffffffffffffffffffffffffffffffffffff021916908373ffffffffffffffffffffffffffffffffffffffff16021790555086816003019080519060200190610f719291906133fc565b5085816004019080519060200190610f8a9291906133fc565b5084816005019080519060200190610fa39291906133fc565b5083816009019080519060200190610fbc9291906133fc565b508281600a019080519060200190610fd59291906133fc565b506006889080600181540180825580915050600190039060005260206000200160009091909190916101000a81548173ffffffffffffffffffffffffffffffffffffffff021916908373ffffffffffffffffffffffffffffffffffffffff16021790555081600701889080600181540180825580915050600190039060005260206000200160009091909190916101000a81548173ffffffffffffffffffffffffffffffffffffffff021916908373ffffffffffffffffffffffffffffffffffffffff1602179055505050505050505050565b6000600360008473ffffffffffffffffffffffffffffffffffffffff1673ffffffffffffffffffffffffffffffffffffffff16815260200190815260200160002090508060010160009054906101000a900473ffffffffffffffffffffffffffffffffffffffff1673ffffffffffffffffffffffffffffffffffffffff163373ffffffffffffffffffffffffffffffffffffffff161461117d576040517f08c379a000000000000000000000000000000000000000000000000000000000815260040161117490614584565b60405180910390fd5b600460008373ffffffffffffffffffffffffffffffffffffffff1673ffffffffffffffffffffffffffffffffffffffff1681526020019081526020016000206000808201600090556001820160006101000a81549073ffffffffffffffffffffffffffffffffffffffff02191690556002820160006101000a81549073ffffffffffffffffffffffffffffffffffffffff02191690556003820160006112239190613482565b6004820160006112339190613482565b6005820160006112439190613482565b6006820160006112539190613482565b600782016000905560088201600061126b9190613482565b60098201600061127b9190613482565b600a8201600061128b9190613482565b600b8201600061129b9190613482565b600c820160006112ab91906134c2565b600d820160006112bb91906134c2565b600e820160006112cb91906134c2565b5050505050565b6112da6134e3565b6000600560008481526020019081526020016000209050806040518060a00160405290816000820154815260200160018201805461131790614464565b80601f016020809104026020016040519081016040528092919081815260200182805461134390614464565b80156113905780601f1061136557610100808354040283529160200191611390565b820191906000526020600020905b81548152906001019060200180831161137357829003601f168201915b505050505081526020016002820180546113a990614464565b80601f01602080910402602001604051908101604052809291908181526020018280546113d590614464565b80156114225780601f106113f757610100808354040283529160200191611422565b820191906000526020600020905b81548152906001019060200180831161140557829003601f168201915b5050505050815260200160038201805461143b90614464565b80601f016020809104026020016040519081016040528092919081815260200182805461146790614464565b80156114b45780601f10611489576101008083540402835291602001916114b4565b820191906000526020600020905b81548152906001019060200180831161149757829003601f168201915b50505050508152602001600482015481525050915050919050565b6000600460008473ffffffffffffffffffffffffffffffffffffffff1673ffffffffffffffffffffffffffffffffffffffff16815260200190815260200160002090506000600360008360010160009054906101000a900473ffffffffffffffffffffffffffffffffffffffff1673ffffffffffffffffffffffffffffffffffffffff1673ffffffffffffffffffffffffffffffffffffffff16815260200190815260200160002090508060010160009054906101000a900473ffffffffffffffffffffffffffffffffffffffff1673ffffffffffffffffffffffffffffffffffffffff163373ffffffffffffffffffffffffffffffffffffffff161461160b576040517f08c379a000000000000000000000000000000000000000000000000000000000815260040161160290614616565b60405180910390fd5b828260090190805190602001906116239291906133fc565b5050505050565b611632613512565b6000600460008473ffffffffffffffffffffffffffffffffffffffff1673ffffffffffffffffffffffffffffffffffffffff168152602001908152602001600020905080604051806101e0016040529081600082015481526020016001820160009054906101000a900473ffffffffffffffffffffffffffffffffffffffff1673ffffffffffffffffffffffffffffffffffffffff1673ffffffffffffffffffffffffffffffffffffffff1681526020016002820160009054906101000a900473ffffffffffffffffffffffffffffffffffffffff1673ffffffffffffffffffffffffffffffffffffffff1673ffffffffffffffffffffffffffffffffffffffff16815260200160038201805461174890614464565b80601f016020809104026020016040519081016040528092919081815260200182805461177490614464565b80156117c15780601f10611796576101008083540402835291602001916117c1565b820191906000526020600020905b8154815290600101906020018083116117a457829003601f168201915b505050505081526020016004820180546117da90614464565b80601f016020809104026020016040519081016040528092919081815260200182805461180690614464565b80156118535780601f1061182857610100808354040283529160200191611853565b820191906000526020600020905b81548152906001019060200180831161183657829003601f168201915b5050505050815260200160058201805461186c90614464565b80601f016020809104026020016040519081016040528092919081815260200182805461189890614464565b80156118e55780601f106118ba576101008083540402835291602001916118e5565b820191906000526020600020905b8154815290600101906020018083116118c857829003601f168201915b505050505081526020016006820180546118fe90614464565b80601f016020809104026020016040519081016040528092919081815260200182805461192a90614464565b80156119775780601f1061194c57610100808354040283529160200191611977565b820191906000526020600020905b81548152906001019060200180831161195a57829003601f168201915b505050505081526020016007820154815260200160088201805461199a90614464565b80601f01602080910402602001604051908101604052809291908181526020018280546119c690614464565b8015611a135780601f106119e857610100808354040283529160200191611a13565b820191906000526020600020905b8154815290600101906020018083116119f657829003601f168201915b50505050508152602001600982018054611a2c90614464565b80601f0160208091040260200160405190810160405280929190818152602001828054611a5890614464565b8015611aa55780601f10611a7a57610100808354040283529160200191611aa5565b820191906000526020600020905b815481529060010190602001808311611a8857829003601f168201915b50505050508152602001600a82018054611abe90614464565b80601f0160208091040260200160405190810160405280929190818152602001828054611aea90614464565b8015611b375780601f10611b0c57610100808354040283529160200191611b37565b820191906000526020600020905b815481529060010190602001808311611b1a57829003601f168201915b50505050508152602001600b82018054611b5090614464565b80601f0160208091040260200160405190810160405280929190818152602001828054611b7c90614464565b8015611bc95780601f10611b9e57610100808354040283529160200191611bc9565b820191906000526020600020905b815481529060010190602001808311611bac57829003601f168201915b50505050508152602001600c8201805480602002602001604051908101604052809291908181526020018280548015611c2157602002820191906000526020600020905b815481526020019060010190808311611c0d575b50505050508152602001600d8201805480602002602001604051908101604052809291908181526020018280548015611c7957602002820191906000526020600020905b815481526020019060010190808311611c65575b50505050508152602001600e8201805480602002602001604051908101604052809291908181526020018280548015611cd157602002820191906000526020600020905b815481526020019060010190808311611cbd575b505050505081525050915050919050565b6000600460003373ffffffffffffffffffffffffffffffffffffffff1673ffffffffffffffffffffffffffffffffffffffff1681526020019081526020016000209050600088511115611d495787816003019080519060200190611d479291906133fc565b505b600087511115611d6d5786816004019080519060200190611d6b9291906133fc565b505b600086511115611d915785816006019080519060200190611d8f9291906133fc565b505b600085511115611db55784816005019080519060200190611db39291906133fc565b505b600084511115611dd9578381600b019080519060200190611dd79291906133fc565b505b600083511115611dfd5782816008019080519060200190611dfb9291906133fc565b505b6000821115611e10578181600701819055505b5050505050505050565b611e22613512565b6000600460003373ffffffffffffffffffffffffffffffffffffffff1673ffffffffffffffffffffffffffffffffffffffff168152602001908152602001600020905080604051806101e0016040529081600082015481526020016001820160009054906101000a900473ffffffffffffffffffffffffffffffffffffffff1673ffffffffffffffffffffffffffffffffffffffff1673ffffffffffffffffffffffffffffffffffffffff1681526020016002820160009054906101000a900473ffffffffffffffffffffffffffffffffffffffff1673ffffffffffffffffffffffffffffffffffffffff1673ffffffffffffffffffffffffffffffffffffffff168152602001600382018054611f3890614464565b80601f0160208091040260200160405190810160405280929190818152602001828054611f6490614464565b8015611fb15780601f10611f8657610100808354040283529160200191611fb1565b820191906000526020600020905b815481529060010190602001808311611f9457829003601f168201915b50505050508152602001600482018054611fca90614464565b80601f0160208091040260200160405190810160405280929190818152602001828054611ff690614464565b80156120435780601f1061201857610100808354040283529160200191612043565b820191906000526020600020905b81548152906001019060200180831161202657829003601f168201915b5050505050815260200160058201805461205c90614464565b80601f016020809104026020016040519081016040528092919081815260200182805461208890614464565b80156120d55780601f106120aa576101008083540402835291602001916120d5565b820191906000526020600020905b8154815290600101906020018083116120b857829003601f168201915b505050505081526020016006820180546120ee90614464565b80601f016020809104026020016040519081016040528092919081815260200182805461211a90614464565b80156121675780601f1061213c57610100808354040283529160200191612167565b820191906000526020600020905b81548152906001019060200180831161214a57829003601f168201915b505050505081526020016007820154815260200160088201805461218a90614464565b80601f01602080910402602001604051908101604052809291908181526020018280546121b690614464565b80156122035780601f106121d857610100808354040283529160200191612203565b820191906000526020600020905b8154815290600101906020018083116121e657829003601f168201915b5050505050815260200160098201805461221c90614464565b80601f016020809104026020016040519081016040528092919081815260200182805461224890614464565b80156122955780601f1061226a57610100808354040283529160200191612295565b820191906000526020600020905b81548152906001019060200180831161227857829003601f168201915b50505050508152602001600a820180546122ae90614464565b80601f01602080910402602001604051908101604052809291908181526020018280546122da90614464565b80156123275780601f106122fc57610100808354040283529160200191612327565b820191906000526020600020905b81548152906001019060200180831161230a57829003601f168201915b50505050508152602001600b8201805461234090614464565b80601f016020809104026020016040519081016040528092919081815260200182805461236c90614464565b80156123b95780601f1061238e576101008083540402835291602001916123b9565b820191906000526020600020905b81548152906001019060200180831161239c57829003601f168201915b50505050508152602001600c820180548060200260200160405190810160405280929190818152602001828054801561241157602002820191906000526020600020905b8154815260200190600101908083116123fd575b50505050508152602001600d820180548060200260200160405190810160405280929190818152602001828054801561246957602002820191906000526020600020905b815481526020019060010190808311612455575b50505050508152602001600e82018054806020026020016040519081016040528092919081815260200182805480156124c157602002820191906000526020600020905b8154815260200190600101908083116124ad575b50505050508152505091505090565b6000600360003373ffffffffffffffffffffffffffffffffffffffff1673ffffffffffffffffffffffffffffffffffffffff1681526020019081526020016000209050338160000160006101000a81548173ffffffffffffffffffffffffffffffffffffffff021916908373ffffffffffffffffffffffffffffffffffffffff160217905550338160010160006101000a81548173ffffffffffffffffffffffffffffffffffffffff021916908373ffffffffffffffffffffffffffffffffffffffff160217905550848160020190805190602001906125b19291906133fc565b50828160040190805190602001906125ca9291906133fc565b50838160030190805190602001906125e39291906133fc565b50818160050190805190602001906125fc9291906133fc565b505050505050565b6000600360003373ffffffffffffffffffffffffffffffffffffffff1673ffffffffffffffffffffffffffffffffffffffff16815260200190815260200160002090508060010160009054906101000a900473ffffffffffffffffffffffffffffffffffffffff1673ffffffffffffffffffffffffffffffffffffffff163373ffffffffffffffffffffffffffffffffffffffff16146126d9576040517f08c379a00000000000000000000000000000000000000000000000000000000081526004016126d090614584565b60405180910390fd5b80600601829080600181540180825580915050600190039060005260206000200160009091909190915090805190602001906127169291906133fc565b505050565b6000600360003373ffffffffffffffffffffffffffffffffffffffff1673ffffffffffffffffffffffffffffffffffffffff16815260200190815260200160002090503373ffffffffffffffffffffffffffffffffffffffff168160010160009054906101000a900473ffffffffffffffffffffffffffffffffffffffff1673ffffffffffffffffffffffffffffffffffffffff16146127f0576040517f08c379a00000000000000000000000000000000000000000000000000000000081526004016127e790614682565b60405180910390fd5b6000600460003373ffffffffffffffffffffffffffffffffffffffff1673ffffffffffffffffffffffffffffffffffffffff1681526020019081526020016000209050428160000181905550338160010160006101000a81548173ffffffffffffffffffffffffffffffffffffffff021916908373ffffffffffffffffffffffffffffffffffffffff160217905550338160020160006101000a81548173ffffffffffffffffffffffffffffffffffffffff021916908373ffffffffffffffffffffffffffffffffffffffff160217905550888160030190805190602001906128da9291906133fc565b50878160040190805190602001906128f39291906133fc565b508681600501908051906020019061290c9291906133fc565b50858160060190805190602001906129259291906133fc565b508481600901908051906020019061293e9291906133fc565b508381600a0190805190602001906129579291906133fc565b508281600b0190805190602001906129709291906133fc565b508160060180600181540180825580915050600190039060005260206000200160006040518060400160405280600a81526020017f4d616e6167656d656e7400000000000000000000000000000000000000000000815250909190915090805190602001906129e09291906133fc565b507ff02e4a56bf8fe1586a31bf333d2eeb11a397183334d2c386f460c360a4e74d2133604051612a1091906146b1565b60405180910390a1505050505050505050565b6000600360003373ffffffffffffffffffffffffffffffffffffffff1673ffffffffffffffffffffffffffffffffffffffff168152602001908152602001600020604051806101000160405290816000820160009054906101000a900473ffffffffffffffffffffffffffffffffffffffff1673ffffffffffffffffffffffffffffffffffffffff1673ffffffffffffffffffffffffffffffffffffffff1681526020016001820160009054906101000a900473ffffffffffffffffffffffffffffffffffffffff1673ffffffffffffffffffffffffffffffffffffffff1673ffffffffffffffffffffffffffffffffffffffff168152602001600282018054612b2c90614464565b80601f0160208091040260200160405190810160405280929190818152602001828054612b5890614464565b8015612ba55780601f10612b7a57610100808354040283529160200191612ba5565b820191906000526020600020905b815481529060010190602001808311612b8857829003601f168201915b50505050508152602001600382018054612bbe90614464565b80601f0160208091040260200160405190810160405280929190818152602001828054612bea90614464565b8015612c375780601f10612c0c57610100808354040283529160200191612c37565b820191906000526020600020905b815481529060010190602001808311612c1a57829003601f168201915b50505050508152602001600482018054612c5090614464565b80601f0160208091040260200160405190810160405280929190818152602001828054612c7c90614464565b8015612cc95780601f10612c9e57610100808354040283529160200191612cc9565b820191906000526020600020905b815481529060010190602001808311612cac57829003601f168201915b50505050508152602001600582018054612ce290614464565b80601f0160208091040260200160405190810160405280929190818152602001828054612d0e90614464565b8015612d5b5780601f10612d3057610100808354040283529160200191612d5b565b820191906000526020600020905b815481529060010190602001808311612d3e57829003601f168201915b5050505050815260200160068201805480602002602001604051908101604052809291908181526020016000905b82821015612e35578382906000526020600020018054612da890614464565b80601f0160208091040260200160405190810160405280929190818152602001828054612dd490614464565b8015612e215780601f10612df657610100808354040283529160200191612e21565b820191906000526020600020905b815481529060010190602001808311612e0457829003601f168201915b505050505081526020019060010190612d89565b50505050815260200160078201805480602002602001604051908101604052809291908181526020018280548015612ec257602002820191906000526020600020905b8160009054906101000a900473ffffffffffffffffffffffffffffffffffffffff1673ffffffffffffffffffffffffffffffffffffffff1681526020019060010190808311612e78575b5050505050815250509050806020015173ffffffffffffffffffffffffffffffffffffffff163373ffffffffffffffffffffffffffffffffffffffff1614612f3f576040517f08c379a0000000000000000000000000000000000000000000000000000000008152600401612f3690614718565b60405180910390fd5b600060056000612f4f6001613367565b81526020019081526020016000209050612f696001613367565b816000018190555083816001019080519060200190612f899291906133fc565b5082816002019080519060200190612fa29291906133fc565b506040518060400160405280600781526020017f70656e64696e6700000000000000000000000000000000000000000000000000815250816003019080519060200190612ff09291906133fc565b504281600401819055506130046001613375565b6000600460008773ffffffffffffffffffffffffffffffffffffffff1673ffffffffffffffffffffffffffffffffffffffff168152602001908152602001600020905080600e0182600001549080600181540180825580915050600190039060005260206000200160009091909190915055505050505050565b6000600460003373ffffffffffffffffffffffffffffffffffffffff1673ffffffffffffffffffffffffffffffffffffffff168152602001908152602001600020905080600d0142908060018154018082558091505060019003906000526020600020016000909190919091505550565b6000600360008473ffffffffffffffffffffffffffffffffffffffff1673ffffffffffffffffffffffffffffffffffffffff16815260200190815260200160002090508060010160009054906101000a900473ffffffffffffffffffffffffffffffffffffffff1673ffffffffffffffffffffffffffffffffffffffff163373ffffffffffffffffffffffffffffffffffffffff16146131c4576040517f08c379a00000000000000000000000000000000000000000000000000000000081526004016131bb906147aa565b60405180910390fd5b818160010160006101000a81548173ffffffffffffffffffffffffffffffffffffffff021916908373ffffffffffffffffffffffffffffffffffffffff160217905550505050565b6000600460008473ffffffffffffffffffffffffffffffffffffffff1673ffffffffffffffffffffffffffffffffffffffff16815260200190815260200160002090506000600360008360010160009054906101000a900473ffffffffffffffffffffffffffffffffffffffff1673ffffffffffffffffffffffffffffffffffffffff1673ffffffffffffffffffffffffffffffffffffffff16815260200190815260200160002090508060010160009054906101000a900473ffffffffffffffffffffffffffffffffffffffff1673ffffffffffffffffffffffffffffffffffffffff163373ffffffffffffffffffffffffffffffffffffffff1614613348576040517f08c379a000000000000000000000000000000000000000000000000000000000815260040161333f90614616565b60405180910390fd5b8282600a0190805190602001906133609291906133fc565b5050505050565b600081600001549050919050565b6001816000016000828254019250508190555050565b604051806101000160405280600073ffffffffffffffffffffffffffffffffffffffff168152602001600073ffffffffffffffffffffffffffffffffffffffff1681526020016060815260200160608152602001606081526020016060815260200160608152602001606081525090565b82805461340890614464565b90600052602060002090601f01602090048101928261342a5760008555613471565b82601f1061344357805160ff1916838001178555613471565b82800160010185558215613471579182015b82811115613470578251825591602001919060010190613455565b5b50905061347e91906135b4565b5090565b50805461348e90614464565b6000825580601f106134a057506134bf565b601f0160209004906000526020600020908101906134be91906135b4565b5b50565b50805460008255906000526020600020908101906134e091906135b4565b50565b6040518060a0016040528060008152602001606081526020016060815260200160608152602001600081525090565b604051806101e0016040528060008152602001600073ffffffffffffffffffffffffffffffffffffffff168152602001600073ffffffffffffffffffffffffffffffffffffffff1681526020016060815260200160608152602001606081526020016060815260200160008152602001606081526020016060815260200160608152602001606081526020016060815260200160608152602001606081525090565b5b808211156135cd5760008160009055506001016135b5565b5090565b6000604051905090565b600080fd5b600080fd5b600073ffffffffffffffffffffffffffffffffffffffff82169050919050565b6000613610826135e5565b9050919050565b61362081613605565b811461362b57600080fd5b50565b60008135905061363d81613617565b92915050565b600060208284031215613659576136586135db565b5b60006136678482850161362e565b91505092915050565b61367981613605565b82525050565b600081519050919050565b600082825260208201905092915050565b60005b838110156136b957808201518184015260208101905061369e565b838111156136c8576000848401525b50505050565b6000601f19601f8301169050919050565b60006136ea8261367f565b6136f4818561368a565b935061370481856020860161369b565b61370d816136ce565b840191505092915050565b600081519050919050565b600082825260208201905092915050565b6000819050602082019050919050565b600061375083836136df565b905092915050565b6000602082019050919050565b600061377082613718565b61377a8185613723565b93508360208202850161378c85613734565b8060005b858110156137c857848403895281516137a98582613744565b94506137b483613758565b925060208a01995050600181019050613790565b50829750879550505050505092915050565b600081519050919050565b600082825260208201905092915050565b6000819050602082019050919050565b60006138128383613670565b60208301905092915050565b6000602082019050919050565b6000613836826137da565b61384081856137e5565b935061384b836137f6565b8060005b8381101561387c5781516138638882613806565b975061386e8361381e565b92505060018101905061384f565b5085935050505092915050565b6000610100830160008301516138a26000860182613670565b5060208301516138b56020860182613670565b50604083015184820360408601526138cd82826136df565b915050606083015184820360608601526138e782826136df565b9150506080830151848203608086015261390182826136df565b91505060a083015184820360a086015261391b82826136df565b91505060c083015184820360c08601526139358282613765565b91505060e083015184820360e086015261394f828261382b565b9150508091505092915050565b600060208201905081810360008301526139768184613889565b905092915050565b6000819050919050565b6139918161397e565b811461399c57600080fd5b50565b6000813590506139ae81613988565b92915050565b6000602082840312156139ca576139c96135db565b5b60006139d88482850161399f565b91505092915050565b600080fd5b600080fd5b7f4e487b7100000000000000000000000000000000000000000000000000000000600052604160045260246000fd5b613a23826136ce565b810181811067ffffffffffffffff82111715613a4257613a416139eb565b5b80604052505050565b6000613a556135d1565b9050613a618282613a1a565b919050565b600067ffffffffffffffff821115613a8157613a806139eb565b5b613a8a826136ce565b9050602081019050919050565b82818337600083830152505050565b6000613ab9613ab484613a66565b613a4b565b905082815260208101848484011115613ad557613ad46139e6565b5b613ae0848285613a97565b509392505050565b600082601f830112613afd57613afc6139e1565b5b8135613b0d848260208601613aa6565b91505092915050565b60008060008060008060c08789031215613b3357613b326135db565b5b6000613b4189828a0161362e565b965050602087013567ffffffffffffffff811115613b6257613b616135e0565b5b613b6e89828a01613ae8565b955050604087013567ffffffffffffffff811115613b8f57613b8e6135e0565b5b613b9b89828a01613ae8565b945050606087013567ffffffffffffffff811115613bbc57613bbb6135e0565b5b613bc889828a01613ae8565b935050608087013567ffffffffffffffff811115613be957613be86135e0565b5b613bf589828a01613ae8565b92505060a087013567ffffffffffffffff811115613c1657613c156135e0565b5b613c2289828a01613ae8565b9150509295509295509295565b60008060408385031215613c4657613c456135db565b5b6000613c548582860161362e565b9250506020613c658582860161362e565b9150509250929050565b613c788161397e565b82525050565b600060a083016000830151613c966000860182613c6f565b5060208301518482036020860152613cae82826136df565b91505060408301518482036040860152613cc882826136df565b91505060608301518482036060860152613ce282826136df565b9150506080830151613cf76080860182613c6f565b508091505092915050565b60006020820190508181036000830152613d1c8184613c7e565b905092915050565b60008060408385031215613d3b57613d3a6135db565b5b6000613d498582860161362e565b925050602083013567ffffffffffffffff811115613d6a57613d696135e0565b5b613d7685828601613ae8565b9150509250929050565b600081519050919050565b600082825260208201905092915050565b6000819050602082019050919050565b6000613db88383613c6f565b60208301905092915050565b6000602082019050919050565b6000613ddc82613d80565b613de68185613d8b565b9350613df183613d9c565b8060005b83811015613e22578151613e098882613dac565b9750613e1483613dc4565b925050600181019050613df5565b5085935050505092915050565b60006101e083016000830151613e486000860182613c6f565b506020830151613e5b6020860182613670565b506040830151613e6e6040860182613670565b5060608301518482036060860152613e8682826136df565b91505060808301518482036080860152613ea082826136df565b91505060a083015184820360a0860152613eba82826136df565b91505060c083015184820360c0860152613ed482826136df565b91505060e0830151613ee960e0860182613c6f565b50610100830151848203610100860152613f0382826136df565b915050610120830151848203610120860152613f1f82826136df565b915050610140830151848203610140860152613f3b82826136df565b915050610160830151848203610160860152613f5782826136df565b915050610180830151848203610180860152613f738282613dd1565b9150506101a08301518482036101a0860152613f8f8282613dd1565b9150506101c08301518482036101c0860152613fab8282613dd1565b9150508091505092915050565b60006020820190508181036000830152613fd28184613e2f565b905092915050565b600080600080600080600060e0888a031215613ff957613ff86135db565b5b600088013567ffffffffffffffff811115614017576140166135e0565b5b6140238a828b01613ae8565b975050602088013567ffffffffffffffff811115614044576140436135e0565b5b6140508a828b01613ae8565b965050604088013567ffffffffffffffff811115614071576140706135e0565b5b61407d8a828b01613ae8565b955050606088013567ffffffffffffffff81111561409e5761409d6135e0565b5b6140aa8a828b01613ae8565b945050608088013567ffffffffffffffff8111156140cb576140ca6135e0565b5b6140d78a828b01613ae8565b93505060a088013567ffffffffffffffff8111156140f8576140f76135e0565b5b6141048a828b01613ae8565b92505060c06141158a828b0161399f565b91505092959891949750929550565b6000806000806080858703121561413e5761413d6135db565b5b600085013567ffffffffffffffff81111561415c5761415b6135e0565b5b61416887828801613ae8565b945050602085013567ffffffffffffffff811115614189576141886135e0565b5b61419587828801613ae8565b935050604085013567ffffffffffffffff8111156141b6576141b56135e0565b5b6141c287828801613ae8565b925050606085013567ffffffffffffffff8111156141e3576141e26135e0565b5b6141ef87828801613ae8565b91505092959194509250565b600060208284031215614211576142106135db565b5b600082013567ffffffffffffffff81111561422f5761422e6135e0565b5b61423b84828501613ae8565b91505092915050565b600080600080600080600060e0888a031215614263576142626135db565b5b600088013567ffffffffffffffff811115614281576142806135e0565b5b61428d8a828b01613ae8565b975050602088013567ffffffffffffffff8111156142ae576142ad6135e0565b5b6142ba8a828b01613ae8565b965050604088013567ffffffffffffffff8111156142db576142da6135e0565b5b6142e78a828b01613ae8565b955050606088013567ffffffffffffffff811115614308576143076135e0565b5b6143148a828b01613ae8565b945050608088013567ffffffffffffffff811115614335576143346135e0565b5b6143418a828b01613ae8565b93505060a088013567ffffffffffffffff811115614362576143616135e0565b5b61436e8a828b01613ae8565b92505060c088013567ffffffffffffffff81111561438f5761438e6135e0565b5b61439b8a828b01613ae8565b91505092959891949750929550565b6000806000606084860312156143c3576143c26135db565b5b60006143d18682870161362e565b935050602084013567ffffffffffffffff8111156143f2576143f16135e0565b5b6143fe86828701613ae8565b925050604084013567ffffffffffffffff81111561441f5761441e6135e0565b5b61442b86828701613ae8565b9150509250925092565b7f4e487b7100000000000000000000000000000000000000000000000000000000600052602260045260246000fd5b6000600282049050600182168061447c57607f821691505b60208210810361448f5761448e614435565b5b50919050565b600082825260208201905092915050565b7f4f6e6c79206f72674f776e65722063616e20636f6d706c657465207461736b00600082015250565b60006144dc601f83614495565b91506144e7826144a6565b602082019050919050565b6000602082019050818103600083015261450b816144cf565b9050919050565b7f4f6e6c79206f72674f776e657220686176652061636365737320746f2074686960008201527f7320616374696f6e000000000000000000000000000000000000000000000000602082015250565b600061456e602883614495565b915061457982614512565b604082019050919050565b6000602082019050818103600083015261459d81614561565b9050919050565b7f4f6e6c79206f72674f776e65722063616e20686176652061636365737320746f60008201527f207468697320616374696f6e0000000000000000000000000000000000000000602082015250565b6000614600602c83614495565b915061460b826145a4565b604082019050919050565b6000602082019050818103600083015261462f816145f3565b9050919050565b7f4f6e6c79206f7267206f776e65722063616e20616464206f7267206f776e6572600082015250565b600061466c602083614495565b915061467782614636565b602082019050919050565b6000602082019050818103600083015261469b8161465f565b9050919050565b6146ab81613605565b82525050565b60006020820190506146c660008301846146a2565b92915050565b7f4f6e6c79206f72674f776e65722063616e2061737369676e207461736b000000600082015250565b6000614702601d83614495565b915061470d826146cc565b602082019050919050565b60006020820190508181036000830152614731816146f5565b9050919050565b7f4f6e6c792063757272656e74206f72674f776e65722063616e20736574206e6560008201527f77206f72674f776e657200000000000000000000000000000000000000000000602082015250565b6000614794602a83614495565b915061479f82614738565b604082019050919050565b600060208201905081810360008301526147c381614787565b905091905056fea26469706673582212208af6f535582d5ffbfe5813fa9352da56c92c413a4fa2b1e7f50199459506abc964736f6c634300080d0033",
  "linkReferences": {},
  "deployedLinkReferences": {}
}